:100000000C9462000C948A000C948A000C948A0070
:100010000C948A000C948A000C948A000C948A0038
:100020000C948A000C948A000C948A000C948A0028
:100030000C948A000C948A000C948A000C948A0018
:100040000C949F040C948A000C948A000C948A00EF
:100050000C948A000C948A000C948A000C948A00F8
:100060000C948A000C948A000000000024002700F1
:100070002A0000000000250028002B0000000000DE
:1000800023002600290004040404040404040202DA
:100090000202020203030303030301020408102007
:1000A0004080010204081020010204081020000012
:1000B0000008000201000003040700000000000027
:1000C0000000630911241FBECFEFD8E0DEBFCDBF13
:1000D00011E0A0E0B1E0E8E2F8E102C005900D9285
:1000E000AE3AB107D9F721E0AEEAB1E001C01D9206
:1000F000A23EB207E1F710E0C2E6D0E004C02197CB
:10010000FE010E94070CC136D107C9F70E94E9041D
:100110000C94120C0C940000833081F028F4813090
:1001200099F08230A1F008958730A9F08830B9F0B5
:100130008430D1F4809180008F7D03C08091800055
:100140008F7780938000089584B58F7702C084B53F
:100150008F7D84BD08958091B0008F7703C080911A
:10016000B0008F7D8093B0000895CF93DF93282F48
:1001700030E0F901E255FF4F8491F901E656FF4F57
:10018000D491F901EA57FF4FC491CC2391F081112A
:100190000E948C00EC2FF0E0EE0FFF1FE458FF4FA1
:1001A000A591B491EC91ED2381E090E021F480E001
:1001B00002C080E090E0DF91CF9108951F93CF932C
:1001C000DF93282F30E0F901E255FF4F8491F901C8
:1001D000E656FF4FD491F901EA57FF4FC491CC2363
:1001E000C1F0162F81110E948C00EC2FF0E0EE0F71
:1001F000FF1FEE58FF4FA591B4919FB7F8941111CE
:1002000004C08C91D095D82302C0EC91DE2BDC93F6
:100210009FBFDF91CF911F910895CF93DF9390E01F
:10022000FC01E656FF4F2491FC01EA57FF4F8491F1
:10023000882361F190E0880F991FFC01E859FF4F76
:10024000C591D491FC01EE58FF4FA591B491611175
:1002500009C09FB7F8948881209582238883EC9108
:100260002E230BC0623061F49FB7F8948881322F3F
:10027000309583238883EC912E2B2C939FBF06C04F
:100280008FB7F894E8812E2B28838FBFDF91CF9111
:1002900008951F93CF93DF93182FEB0161E00E9425
:1002A0000D01209711F460E004C0CF3FD10539F46F
:1002B00061E0812FDF91CF911F910C94DE00E12F3F
:1002C000F0E0E255FF4FE491E330F9F048F4E1301B
:1002D000B9F0E230A1F584B5806284BDC8BD34C0F8
:1002E000E730E9F0E83019F1E43049F58091800019
:1002F000806280938000D0938B00C0938A0024C0DA
:1003000084B5806884BDC7BD1FC0809180008068AF
:1003100080938000D0938900C093880015C080919D
:10032000B00080688093B000C093B3000DC080918E
:10033000B00080628093B000C093B40005C0C038A4
:10034000D1050CF0B5CFAFCFDF91CF911F910895BC
:100350003FB7F8948091C6019091C701A091C80160
:10036000B091C90126B5A89B05C02F3F19F0019691
:10037000A11DB11D3FBFBA2FA92F982F8827820F2B
:10038000911DA11DB11DBC01CD0142E0660F771F7B
:10039000881F991F4A95D1F70895CF92DF92EF9267
:1003A000FF920F931F93CF93DF936C017A018B0120
:1003B000C0E0D0E0CE15DF0581F0D8016D918D0150
:1003C000D601ED91FC910190F081E02DC6010995D7
:1003D000892B11F02196EECF7E01C701DF91CF91DD
:1003E0001F910F91FF90EF90DF90CF900895CF93E2
:1003F000DF93EC0160E08E810E94DE0061E08E817F
:100400000E94DE0060E08E810E94DE008BE891E0B9
:100410000197F1F7DF91CF910895CF92DF92EF929C
:10042000FF920F931F93CF93DF936C017C0187E0C2
:10043000E80EF11CC0E0D0E0062F10E0B8010C2E51
:1004400002C0759567950A94E2F76170F701819192
:100450007F010E94DE002196C430D10579F7C601E4
:10046000DF91CF911F910F91FF90EF90DF90CF9090
:100470000C94F701CF92DF92EF92FF920F931F93AC
:10048000CF93DF93EC01F62E642F8C810E94DE0067
:100490008D818F3F19F060E00E94DE008F850F2D67
:1004A00010E084FF25C06E0187E0C80ED11CE12C4E
:1004B000F12CB8010E2C02C0759567950A94E2F7ED
:1004C0006170F60181916F010E94DE00FFEFEF1A6B
:1004D000FF0A88E0E816F10461F7CE01DF91CF91C1
:1004E0001F910F91FF90EF90DF90CF900C94F70148
:1004F000B80184E0759567958A95E1F7CE010E9471
:100500000D026F2DCE01DF91CF911F910F91FF90C2
:10051000EF90DF90CF900C940D0240E0682F8AECB2
:1005200091E00C943A0281E00E948D028BE39FE1FE
:100530000197F1F70895CF93DF93823028F09091DF
:10054000D90198609093D9018093DD011092DE016A
:1005500080E48093DF0180E18093E00180E5809377
:10056000E10161E08091CE010E940D018091CF01F7
:100570008F3F19F061E00E940D0161E08091D00190
:100580000E940D01CAECD1E09E012A5C31408091AD
:10059000D90184FD03C084E090E002C088E090E0CF
:1005A0002196281739072CF461E08E810E940D01F5
:1005B000EBCF8BE39DE00197F1F760E08091CE01F6
:1005C0000E94DE0060E08091D0010E94DE008091F8
:1005D000CF018F3F19F060E00E94DE008091D901C9
:1005E00084FD20C063E08AEC91E00E940D02CBE420
:1005F000D6E4CE010197F1F763E08AEC91E00E9426
:100600000D022197F1F763E08AEC91E00E940D0260
:1006100083E592E00197F1F762E08AEC91E00E94B5
:100620000D0215C080620E948D028BE496E4019752
:10063000F1F78091D90180620E948D0283E592E0FA
:100640000197F1F78091D90180620E948D0280911B
:10065000D90180620E948D0284E08093DA018CE0EF
:100660000E948D020E94930282E08093DB0186E06B
:10067000DF91CF910C948D02643008F063E090918B
:10068000DD01691710F06FEF690FE62FF0E0E65318
:10069000FE4F9489890F80680C948D0241E00E947E
:1006A0003A0281E090E00895089580E090E0089596
:1006B000009769F0FC0101900020E9F73197AF0144
:1006C000481B590BBC018AEC91E00C94CD0180E0F1
:1006D00090E008950C9458038F929F92AF92BF922E
:1006E0000F931F93CF93DF93CDB7DEB7A1970FB6CC
:1006F000F894DEBF0FBECDBF19A2423008F44AE025
:100700008E010F5D1F4F842E912CA12CB12CA501C1
:1007100094010E94E50BE62FB901CA0101501109AD
:10072000EA3014F4E05D01C0E95CD801EC93232BBE
:10073000242B252B61F7C8010E945803A1960FB600
:10074000F894DEBF0FBECDBFDF91CF911F910F9107
:10075000BF90AF909F908F900895CF92DF92EF92CD
:10076000FF926B017C0141E06DE28AEC91E00E9416
:100770003A0266277727CB016C197D098E099F09FC
:100780004AE00E946C030196FF90EF90DF90CF90BB
:1007900008958F929F92AF92BF92CF92DF92EF9285
:1007A000FF920F931F93CF93DF936B017C01142F64
:1007B0009B01AC010E94E00B882319F081EA91E0D3
:1007C00027C046015701E894B7F82FEF3FEF4FE7F6
:1007D0005FE7C501B4010E94E00B81110DC02FEF4E
:1007E0003FEF4FE75FE7C501B4010E940F0A1816FB
:1007F0001CF485EA91E00CC02FEF3FEF4FE75FE478
:10080000C701B6010E946E0B181684F489EA91E0C4
:10081000DF91CF911F910F91FF90EF90DF90CF90DC
:10082000BF90AF909F908F900C9458032FEF3FEFA5
:100830004FE75FECC701B6010E940F0A87FDE6CFC4
:1008400020E030E0A901C701B6010E940F0A87FF2E
:100850000DC041E06DE28AEC91E00E943A02F7FAA5
:10086000F094F7F8F094C1E0D0E002C0C0E0D0E02E
:1008700000E060E070E080E09FE3101741F020E0CE
:1008800030E040E251E40E94140A0F5FF6CFA70166
:1008900096010E94A3096B017C010E948D0A4B0105
:1008A0005C014AE00E946C03C80FD91F1123B9F103
:1008B000C501B4010E94BC0A9B01AC01C701B6018D
:1008C0000E94A2096B017C0141E06EE28AEC91E09A
:1008D0000E943A02219620E030E040E251E4C70154
:1008E000B6010E94730B4B015C010E948D0A6B01E3
:1008F000E12CF12C4AE0C701B6010E946C03C80F3D
:10090000D91FC701B6010E94BC0A9B01AC01C501F9
:10091000B4010E94A2096B017C011150E1F6CE01E5
:10092000DF91CF911F910F91FF90EF90DF90CF90CB
:10093000BF90AF909F908F9008950E940D0C1F92D2
:100940000F920FB60F9211242F933F938F939F9383
:10095000AF93BF938091C2019091C301A091C40154
:10096000B091C5013091C10123E0230F2D3720F450
:100970000196A11DB11D05C026E8230F0296A11DF9
:10098000B11D2093C1018093C2019093C301A09334
:10099000C401B093C5018091C6019091C701A09197
:1009A000C801B091C9010196A11DB11D8093C60176
:1009B0009093C701A093C801B093C901BF91AF91B3
:1009C0009F918F913F912F910F900FBE0F901F908D
:1009D0001895789484B5826084BD84B5816084BDA7
:1009E00085B5826085BD85B5816085BD80916E00CD
:1009F000816080936E0010928100809181008260FE
:100A0000809381008091810081608093810080913A
:100A100080008160809380008091B1008460809329
:100A2000B1008091B00081608093B00080917A0025
:100A3000846080937A0080917A00826080937A004B
:100A400080917A00816080937A0080917A0080683A
:100A500080937A001092C10060E087E00E940D014F
:100A600060E088E00E940D0160E089E00E940D01D5
:100A700060E08AE00E940D0161E086E00E940D01C5
:100A800061E080E00E940D0161E086E00E94DE00EE
:100A900061E080E00E94DE0082E00E949B0290E420
:100AA000392E20E0C22E20E0D22E04E610E0EE2403
:100AB000E394F12C8FB7F8944091C2015091C30197
:100AC0006091C4017091C5018FBF8091BD0190916B
:100AD000BE01A091BF01B091C0018C509E4FAF4F9D
:100AE000BF4F481759076A077B0780F19091BC01F7
:100AF00080910E01992349F0882389F061E080E01C
:100B00000E94DE001092BC010EC0882341F060E01C
:100B100080E00E94DE0081E08093BC0104C061E0BF
:100B200080E00E94DE002FB7F8948091C20190917E
:100B3000C301A091C401B091C5012FBF8093BD0135
:100B40009093BE01A093BF01B093C00130927C008E
:100B500080917A00806480937A0080917A0086FD8B
:100B6000FCCF609178008091790070E0782B072E9F
:100B7000000C880B990B0E94BE0A20E030E040EA8E
:100B800050E40E94730B20E030EC4FE754E40E94E5
:100B9000140A2AE037ED43E25CE30E94140A4B0199
:100BA0005C016093B8017093B9018093BA0190938E
:100BB000BB01C0910C01D0910D01CE0105970297A8
:100BC00008F460C0409008015090090160900A014B
:100BD00070900B01A3019201C501B4010E940F0A9C
:100BE00087FF1CC020E030E049E152E4609104013D
:100BF0007091050180910601909107010E94730B8D
:100C00000E94860A80E10E94490160E070E08FE066
:100C10000E94490181E08093B70132C0A301920193
:100C2000C501B4010E946E0B1816F4F420E030E008
:100C30004FE752E460910401709105018091060133
:100C4000909107010E94730B0E94860A8FE00E9418
:100C5000490160E070E080E10E9449011092B70113
:100C600081E08093B6010EC060E070E08FE00E94EA
:100C7000490160E070E080E10E9449011092B701F3
:100C80001092B601C330D10509F4DEC03CF4C13086
:100C9000D10571F0229709F469C0CBC2C530D105E6
:100CA00009F49EC10CF46CC1269709F42DC2C1C28F
:100CB0000E94930260E080E00E943C0389E391E09F
:100CC0000E946A0360E084E00E943C036091080196
:100CD0007091090180910A0190910B0142E00E94FC
:100CE000C90361E080E00E943C038FE291E00E9432
:100CF0006A0361E084E00E943C036091B801709156
:100D0000B9018091BA019091BB0142E00E94C903F0
:100D10008091B701882339F060E088E00E943C03AD
:100D200086E291E00AC08091B60160E0882381F0FC
:100D300088E00E943C038DE191E00E946A0361E03B
:100D40008DE00E943C0387E891E00E946A0371C233
:100D500088E00E943C038BE191E00E946A0361E01D
:100D60008DE00E943C038AE891E0EFCF0E9493025D
:100D700060E080E00E943C038DE391E00E946A0302
:100D800061E080E00E943C0389E391E00E946A03F5
:100D900061E084E00E943C036091B2017091B30174
:100DA0008091B4019091B50142E00E94C90387E0AF
:100DB0000E94B500892BB1F020E030E040E85FE30D
:100DC0006091B2017091B3018091B4019091B5012D
:100DD0000E94A3096093B2017093B3018093B401A0
:100DE0009093B50188E00E94B500892BB1F020E016
:100DF00030E040E85FE36091B2017091B30180910F
:100E0000B4019091B5010E94A2096093B201709360
:100E1000B3018093B4019093B50189E00E94B500BD
:100E2000892B09F406C28091B2019091B301A0917F
:100E3000B401B091B5018093080190930901A0938A
:100E40000A01B0930B01F5C10E94930260E080E0BB
:100E50000E943C038FE491E00E946A0361E080E01D
:100E60000E943C038BE491E00E946A0361E084E00D
:100E70000E943C036091AE017091AF018091B0017E
:100E80009091B10142E00E94C90387E00E94B50041
:100E9000892B69F120E030E040E85FE36091AE012A
:100EA0007091AF018091B0019091B1010E94A309AE
:100EB0004B015C0120E030E040E850E40E946E0B02
:100EC00018164CF08092AE019092AF01A092B00142
:100ED000B092B1010CC080E090E0A0E8B0E4809353
:100EE000AE019093AF01A093B001B093B10188E03F
:100EF0000E94B500892B69F120E030E040E85FE313
:100F00006091AE017091AF018091B0019091B101FB
:100F10000E94A2094B015C0120E030E040E85FE361
:100F20000E940F0A87FD09C08092AE019092AF0126
:100F3000A092B001B092B1010CC080E090E0A0E8B6
:100F4000BFE38093AE019093AF01A093B001B09343
:100F5000B10189E00E94B500892B09F46AC1809132
:100F6000AE019091AF01A091B001B091B101809319
:100F7000040190930501A0930601B093070159C1A4
:100F80000E94930260E080E00E943C038FE691E0C3
:100F90000E946A0361E084E00E943C0380910E019C
:100FA000882319F08EE591E002C086E691E00E9468
:100FB0006A0387E00E94B500892B09F07DC188E0B3
:100FC0000E94B500892B09F077C180910E0188231A
:100FD00011F061E001C060E086E00E94DE0029C1FE
:100FE0000E94930260E080E00E943C0383E991E06C
:100FF0000E946A0361E080E00E943C038FE791E079
:101000000E946A0361E086E00E943C038091020135
:101010009091030118161906FCF487E891E00E94EC
:101020006A0361E08AE00E943C03609102017091D2
:101030000301072E000C880B990B97FF03C00E9439
:10104000AD0303C04AE00E946C0361E08DE00E94A2
:101050003C0385E891E002C08AE891E00E946A03BF
:1010600087E00E94B500892B89F080910201909160
:1010700003010196853691052CF49093030180932A
:10108000020104C0109303010093020188E00E9452
:10109000B500892B89F0809102019091030101979D
:1010A000181619062CF4909303018093020104C0D2
:1010B000F0920301E092020189E00E94B500892BC1
:1010C00079F08091020190910301892B29F410930A
:1010D00003010093020104C0109203011092020167
:1010E0006091020170910301072E000C880B990B8F
:1010F0000E94BE0A2AE037ED43EC5FE30E94730BC7
:101100000E94860A80E193C00E94930260E080E022
:101110000E943C0383E991E00E946A0361E080E061
:101120000E943C038EE891E00E946A0361E085E042
:101130000E943C038091000190910101181619064C
:10114000FCF487E891E00E946A0361E08AE00E9473
:101150003C036091000170910101072E000C880B87
:10116000990B97FF03C00E94AD0303C04AE00E94A1
:101170006C0361E08DE00E943C0385E891E002C0D1
:101180008AE891E00E946A0387E00E94B500892BFB
:1011900089F08091000190910101019685369105B9
:1011A0002CF4909301018093000104C0109301017D
:1011B0000093000188E00E94B500892B89F080919E
:1011C0000001909101010197181619062CF49093D3
:1011D00001018093000104C0F0920101E09200013E
:1011E00089E00E94B500892B79F0809100019091EF
:1011F0000101892B29F4109301010093000104C01F
:1012000010920101109200016091000170910101A2
:10121000072E000C880B990B0E94BE0A23E333E3D0
:1012200043E250E40E94730B0E94860A8FE00E9402
:1012300049010E94A8014B015C0188EC482E512C09
:10124000612C712C0E94A801DC01CB01881999093D
:10125000AA09BB09883E9340A105B10598F321E096
:10126000421A51086108710888EE880E83E0981EC2
:10127000A11CB11C411451046104710419F78AE0E6
:101280000E94B500892B89F080910C0190910D018D
:1012900001968730910529F090930D0180930C0100
:1012A00004C0F0920D01E0920C01C114D10409F4C4
:1012B00001CC0E940000FECB90910E0181E08927B5
:1012C00080930E0182CEEAECF1E01382128283E178
:1012D00091E0918380838CE084838FEF85838BE022
:1012E000868385E0878384E0808783E0818782E04E
:1012F00082871386148615861686178681E00E94DB
:101300009B028091080190910901A0910A01B0917E
:101310000B018093B2019093B301A093B401B093F9
:10132000B5018091040190910501A0910601B09151
:1013300007018093AE019093AF01A093B001B093E9
:10134000B10108955058BB27AA270E94BA090C94EE
:10135000340B0E94260B38F00E942D0B20F039F43C
:101360009F3F19F426F40C94230B0EF4E095E7FB51
:101370000C941D0BE92F0E94450B58F3BA17620716
:1013800073078407950720F079F4A6F50C94670B92
:101390000EF4E0950B2EBA2FA02D0B01B901900190
:1013A0000C01CA01A0011124FF27591B99F0593FD4
:1013B00050F4503E68F11A16F040A22F232F342F1C
:1013C0004427585FF3CF469537952795A795F0406A
:1013D0005395C9F77EF41F16BA0B620B730B840B7F
:1013E000BAF09150A1F0FF0FBB1F661F771F881F37
:1013F000C2F70EC0BA0F621F731F841F48F487958F
:1014000077956795B795F7959E3F08F0B0CF939580
:10141000880F08F09927EE0F9795879508950E94F9
:10142000F90A08F481E008950E94280A0C94340B0C
:101430000E942D0B58F00E94260B40F029F45F3FCC
:1014400029F00C941D0B51110C94680B0C94230B78
:101450000E94450B68F39923B1F3552391F3951B33
:10146000550BBB27AA2762177307840738F09F5FC5
:101470005F4F220F331F441FAA1FA9F335D00E2E32
:101480003AF0E0E832D091505040E695001CCAF79F
:101490002BD0FE2F29D0660F771F881FBB1F261762
:1014A00037074807AB07B0E809F0BB0B802DBF0139
:1014B000FF2793585F4F3AF09E3F510578F00C9408
:1014C0001D0B0C94680B5F3FE4F3983ED4F38695B4
:1014D00077956795B795F7959F5FC9F7880F911D29
:1014E0009695879597F90895E1E0660F771F881F15
:1014F000BB1F621773078407BA0720F0621B730BC8
:10150000840BBA0BEE1F88F7E09508950E948D0AB0
:101510006894B1110C94680B08950E944D0B88F0EB
:101520009F5798F0B92F9927B751B0F0E1F0660FA7
:10153000771F881F991F1AF0BA95C9F714C0B130E8
:1015400091F00E94670BB1E008950C94670B672F30
:10155000782F8827B85F39F0B93FCCF38695779517
:101560006795B395D9F73EF4909580957095619500
:101570007F4F8F4F9F4F0895E89409C097FB3EF42B
:1015800090958095709561957F4F8F4F9F4F9923D0
:10159000A9F0F92F96E9BB279395F695879577954E
:1015A0006795B795F111F8CFFAF4BB0F11F460FF0E
:1015B0001BC06F5F7F4F8F4F9F4F16C0882311F066
:1015C00096E911C0772321F09EE8872F762F05C07A
:1015D000662371F096E8862F70E060E02AF09A9515
:1015E000660F771F881FDAF7880F9695879597F90A
:1015F0000895990F0008550FAA0BE0E8FEEF1616A4
:101600001706E807F907C0F012161306E407F507F6
:1016100098F0621B730B840B950B39F40A2661F06A
:10162000232B242B252B21F408950A2609F4A1400D
:10163000A6958FEF811D811D089597F99F6780E81A
:1016400070E060E008959FEF80EC089500240A9414
:101650001616170618060906089500240A9412168D
:101660001306140605060895092E0394000C11F4C0
:10167000882352F0BB0F40F4BF2B11F460FF04C06D
:101680006F5F7F4F8F4F9F4F089557FD9058440FC6
:10169000551F59F05F3F71F04795880F97FB991FD1
:1016A00061F09F3F79F0879508951216130614068E
:1016B000551FF2CF4695F1DF08C01616170618061B
:1016C000991FF1CF86957105610508940895E894F6
:1016D000BB2766277727CB0197F908950E94F90A5F
:1016E00008F48FEF08950E94860B0C94340B0E942F
:1016F000260B38F00E942D0B20F0952311F00C944E
:101700001D0B0C94230B11240C94680B0E94450BA9
:1017100070F3959FC1F3950F50E0551F629FF00144
:10172000729FBB27F00DB11D639FAA27F00DB11D5D
:10173000AA1F649F6627B00DA11D661F829F2227E6
:10174000B00DA11D621F739FB00DA11D621F839F6D
:10175000A00D611D221F749F3327A00D611D231F43
:10176000849F600D211D822F762F6A2F11249F5791
:1017700050409AF0F1F088234AF0EE0FFF1FBB1F94
:10178000661F771F881F91505040A9F79E3F510553
:1017900080F00C941D0B0C94680B5F3FE4F3983EB3
:1017A000D4F3869577956795B795F795E7959F5FFD
:1017B000C1F7FE2B880F911D9695879597F908958F
:1017C0000E94F90A880B990B0895A1E21A2EAA1B10
:1017D000BB1BFD010DC0AA1FBB1FEE1FFF1FA217E1
:1017E000B307E407F50720F0A21BB30BE40BF50BDE
:1017F000661F771F881F991F1A9469F76095709567
:10180000809590959B01AC01BD01CF010895EE0F2D
:10181000FF1F0590F491E02D099481E090E0F89489
:081820000C94120CF894FFCFA8
:10182800640064000000803F0000F04101000100F6
:101838000000004E03CD015503540343004320200C
:10184800202046616E0043202020486561740050C6
:10185800563A2020202020430053503A004E657706
:101868002053657420506F696E74004B503A004ED7
:1018780065772050726F702E204761696E00456E43
:1018880061626C65640044697361626C6564002020
:1018980020447269766572205374617475730048C8
:1018A8006561743A0025004F4E004F464600466178
:1018B8006E3A0020204D616E75616C204D6F646535
:0E18C800006E616E00696E66006F766600004D
:00000001FF
