:100000000C9462000C948A000C948A000C948A0070
:100010000C948A000C948A000C948A000C948A0038
:100020000C948A000C948A000C948A000C948A0028
:100030000C948A000C948A000C948A000C948A0018
:100040000C949F040C948A000C948A000C948A00EF
:100050000C948A000C948A000C948A000C948A00F8
:100060000C948A000C948A000000000024002700F1
:100070002A0000000000250028002B0000000000DE
:1000800023002600290004040404040404040202DA
:100090000202020203030303030301020408102007
:1000A0004080010204081020010204081020000012
:1000B0000008000201000003040700000000000027
:1000C00000004E0911241FBECFEFD8E0DEBFCDBF28
:1000D00011E0A0E0B1E0EEEFF7E102C005900D9273
:1000E000A23AB107D9F721E0A2EAB1E001C01D921E
:1000F000A53DB207E1F710E0C2E6D0E004C02197C9
:10010000FE010E94F20BC136D107C9F70E94E90433
:100110000C94FD0B0C940000833081F028F48130A6
:1001200099F08230A1F008958730A9F08830B9F0B5
:100130008430D1F4809180008F7D03C08091800055
:100140008F7780938000089584B58F7702C084B53F
:100150008F7D84BD08958091B0008F7703C080911A
:10016000B0008F7D8093B0000895CF93DF93282F48
:1001700030E0F901E255FF4F8491F901E656FF4F57
:10018000D491F901EA57FF4FC491CC2391F081112A
:100190000E948C00EC2FF0E0EE0FFF1FE458FF4FA1
:1001A000A591B491EC91ED2381E090E021F480E001
:1001B00002C080E090E0DF91CF9108951F93CF932C
:1001C000DF93282F30E0F901E255FF4F8491F901C8
:1001D000E656FF4FD491F901EA57FF4FC491CC2363
:1001E000C1F0162F81110E948C00EC2FF0E0EE0F71
:1001F000FF1FEE58FF4FA591B4919FB7F8941111CE
:1002000004C08C91D095D82302C0EC91DE2BDC93F6
:100210009FBFDF91CF911F910895CF93DF9390E01F
:10022000FC01E656FF4F2491FC01EA57FF4F8491F1
:10023000882361F190E0880F991FFC01E859FF4F76
:10024000C591D491FC01EE58FF4FA591B491611175
:1002500009C09FB7F8948881209582238883EC9108
:100260002E230BC0623061F49FB7F8948881322F3F
:10027000309583238883EC912E2B2C939FBF06C04F
:100280008FB7F894E8812E2B28838FBFDF91CF9111
:1002900008951F93CF93DF93182FEB0161E00E9425
:1002A0000D01209711F460E004C0CF3FD10539F46F
:1002B00061E0812FDF91CF911F910C94DE00E12F3F
:1002C000F0E0E255FF4FE491E330F9F048F4E1301B
:1002D000B9F0E230A1F584B5806284BDC8BD34C0F8
:1002E000E730E9F0E83019F1E43049F58091800019
:1002F000806280938000D0938B00C0938A0024C0DA
:1003000084B5806884BDC7BD1FC0809180008068AF
:1003100080938000D0938900C093880015C080919D
:10032000B00080688093B000C093B3000DC080918E
:10033000B00080628093B000C093B40005C0C038A4
:10034000D1050CF0B5CFAFCFDF91CF911F910895BC
:100350003FB7F8948091B9019091BA01A091BB0187
:10036000B091BC0126B5A89B05C02F3F19F001969E
:10037000A11DB11D3FBFBA2FA92F982F8827820F2B
:10038000911DA11DB11DBC01CD0142E0660F771F7B
:10039000881F991F4A95D1F70895CF92DF92EF9267
:1003A000FF920F931F93CF93DF936C017A018B0120
:1003B000C0E0D0E0CE15DF0581F0D8016D918D0150
:1003C000D601ED91FC910190F081E02DC6010995D7
:1003D000892B11F02196EECF7E01C701DF91CF91DD
:1003E0001F910F91FF90EF90DF90CF900895CF93E2
:1003F000DF93EC0160E08E810E94DE0061E08E817F
:100400000E94DE0060E08E810E94DE008BE891E0B9
:100410000197F1F7DF91CF910895CF92DF92EF929C
:10042000FF920F931F93CF93DF936C017C0187E0C2
:10043000E80EF11CC0E0D0E0062F10E0B8010C2E51
:1004400002C0759567950A94E2F76170F701819192
:100450007F010E94DE002196C430D10579F7C601E4
:10046000DF91CF911F910F91FF90EF90DF90CF9090
:100470000C94F701CF92DF92EF92FF920F931F93AC
:10048000CF93DF93EC01F62E642F8C810E94DE0067
:100490008D818F3F19F060E00E94DE008F850F2D67
:1004A00010E084FF25C06E0187E0C80ED11CE12C4E
:1004B000F12CB8010E2C02C0759567950A94E2F7ED
:1004C0006170F60181916F010E94DE00FFEFEF1A6B
:1004D000FF0A88E0E816F10461F7CE01DF91CF91C1
:1004E0001F910F91FF90EF90DF90CF900C94F70148
:1004F000B80184E0759567958A95E1F7CE010E9471
:100500000D026F2DCE01DF91CF911F910F91FF90C2
:10051000EF90DF90CF900C940D0240E0682F8DEBB0
:1005200091E00C943A0281E00E948D028BE39FE1FE
:100530000197F1F70895CF93DF93823028F09091DF
:10054000CC0198609093CC018093D0011092D1019E
:1005500080E48093D20180E18093D30180E5809391
:10056000D40161E08091C1010E940D018091C2011E
:100570008F3F19F061E00E940D0161E08091C3019D
:100580000E940D01CDEBD1E09E012D5B31408091A9
:10059000CC0184FD03C084E090E002C088E090E0DC
:1005A0002196281739072CF461E08E810E940D01F5
:1005B000EBCF8BE39DE00197F1F760E08091C10103
:1005C0000E94DE0060E08091C3010E94DE00809105
:1005D000C2018F3F19F060E00E94DE008091CC01E3
:1005E00084FD20C063E08DEB91E00E940D02CBE41E
:1005F000D6E4CE010197F1F763E08DEB91E00E9424
:100600000D022197F1F763E08DEB91E00E940D025E
:1006100083E592E00197F1F762E08DEB91E00E94B3
:100620000D0215C080620E948D028BE496E4019752
:10063000F1F78091CC0180620E948D0283E592E007
:100640000197F1F78091CC0180620E948D02809128
:10065000CC0180620E948D0284E08093CD018CE009
:100660000E948D020E94930282E08093CE0186E078
:10067000DF91CF910C948D02643008F063E090918B
:10068000D001691710F06FEF690FE62FF0E0E35427
:10069000FE4F9489890F80680C948D0241E00E947E
:1006A0003A0281E090E00895089580E090E0089596
:1006B000009769F0FC0101900020E9F73197AF0144
:1006C000481B590BBC018DEB91E00C94CD0180E0EF
:1006D00090E008950C9458038F929F92AF92BF922E
:1006E0000F931F93CF93DF93CDB7DEB7A1970FB6CC
:1006F000F894DEBF0FBECDBF19A2423008F44AE025
:100700008E010F5D1F4F842E912CA12CB12CA501C1
:1007100094010E94D00BE62FB901CA0101501109C2
:10072000EA3014F4E05D01C0E95CD801EC93232BBE
:10073000242B252B61F7C8010E945803A1960FB600
:10074000F894DEBF0FBECDBFDF91CF911F910F9107
:10075000BF90AF909F908F900895CF92DF92EF92CD
:10076000FF926B017C0141E06DE28DEB91E00E9414
:100770003A0266277727CB016C197D098E099F09FC
:100780004AE00E946C030196FF90EF90DF90CF90BB
:1007900008958F929F92AF92BF92CF92DF92EF9285
:1007A000FF920F931F93CF93DF936B017C01142F64
:1007B0009B01AC010E94CB0B882319F086E991E0E4
:1007C00027C046015701E894B7F82FEF3FEF4FE7F6
:1007D0005FE7C501B4010E94CB0B81110DC02FEF63
:1007E0003FEF4FE75FE7C501B4010E94FA09181611
:1007F0001CF48AE991E00CC02FEF3FEF4FE75FE474
:10080000C701B6010E94590B181684F48EE991E0D5
:10081000DF91CF911F910F91FF90EF90DF90CF90DC
:10082000BF90AF909F908F900C9458032FEF3FEFA5
:100830004FE75FECC701B6010E94FA0987FDE6CFDA
:1008400020E030E0A901C701B6010E94FA0987FF44
:100850000DC041E06DE28DEB91E00E943A02F7FAA3
:10086000F094F7F8F094C1E0D0E002C0C0E0D0E02E
:1008700000E060E070E080E09FE3101741F020E0CE
:1008800030E040E251E40E94FF090F5FF6CFA7017C
:1008900096010E948E096B017C010E94780A4B012F
:1008A0005C014AE00E946C03C80FD91F1123B9F103
:1008B000C501B4010E94A70A9B01AC01C701B601A2
:1008C0000E948D096B017C0141E06EE28DEB91E0AD
:1008D0000E943A02219620E030E040E251E4C70154
:1008E000B6010E945E0B4B015C010E94780A6B010D
:1008F000E12CF12C4AE0C701B6010E946C03C80F3D
:10090000D91FC701B6010E94A70A9B01AC01C5010E
:10091000B4010E948D096B017C011150E1F6CE01FA
:10092000DF91CF911F910F91FF90EF90DF90CF90CB
:10093000BF90AF909F908F9008950E94F80B1F92E8
:100940000F920FB60F9211242F933F938F939F9383
:10095000AF93BF938091B5019091B601A091B7017B
:10096000B091B8013091B40123E0230F2D3720F46A
:100970000196A11DB11D05C026E8230F0296A11DF9
:10098000B11D2093B4018093B5019093B601A0935B
:10099000B701B093B8018091B9019091BA01A091CB
:1009A000BB01B091BC010196A11DB11D8093B9019D
:1009B0009093BA01A093BB01B093BC01BF91AF91DA
:1009C0009F918F913F912F910F900FBE0F901F908D
:1009D0001895789484B5826084BD84B5816084BDA7
:1009E00085B5826085BD85B5816085BD80916E00CD
:1009F000816080936E0010928100809181008260FE
:100A0000809381008091810081608093810080913A
:100A100080008160809380008091B1008460809329
:100A2000B1008091B00081608093B00080917A0025
:100A3000846080937A0080917A00826080937A004B
:100A400080917A00816080937A0080917A0080683A
:100A500080937A001092C10060E087E00E940D014F
:100A600060E088E00E940D0160E089E00E940D01D5
:100A700060E08AE00E940D0161E086E00E940D01C5
:100A800061E080E00E940D0161E086E00E94DE00EE
:100A900061E080E00E94DE0082E00E949B0290E420
:100AA000392E20E0C22E20E0D22E04E610E0EE2403
:100AB000E394F12C8FB7F8944091B5015091B601B1
:100AC0006091B7017091B8018FBF8091B001909192
:100AD000B101A091B201B091B3018C509E4FAF4FC4
:100AE000BF4F481759076A077B0780F19091AF0104
:100AF00080910E01992349F0882389F061E080E01C
:100B00000E94DE001092AF010EC0882341F060E029
:100B100080E00E94DE0081E08093AF0104C061E0CC
:100B200080E00E94DE002FB7F8948091B50190918B
:100B3000B601A091B701B091B8012FBF8093B00169
:100B40009093B101A093B201B093B30130927C00B5
:100B500080917A00806480937A0080917A0086FD8B
:100B6000FCCF609178008091790070E0782B072E9F
:100B7000000C880B990B0E94A90A20E030E040EAA3
:100B800050E40E945E0B20E030EC4FE754E40E94FA
:100B9000FF092AE037ED43E25CE30E94FF094B01C5
:100BA0005C016093AB017093AC018093AD019093B5
:100BB000AE01C0910C01D0910D01CE0105970297B5
:100BC00008F461C0409008015090090160900A014A
:100BD00070900B0120E030E040EC5FE3C301B20114
:100BE0000E948D099B01AC01C501B4010E94FA0964
:100BF00087FF1CC020E030E049E152E4609104012D
:100C00007091050180910601909107010E945E0B91
:100C10000E94710A80E10E94490160E070E08FE06B
:100C20000E94490181E08093AA012DC020E030E0BC
:100C300040EC5FE3C301B2010E948E099B01AC014D
:100C4000C501B4010E94590B18168CF420E030E065
:100C50004FE752E460910401709105018091060113
:100C6000909107010E945E0B0E94710A02C060E031
:100C700070E08FE00E94490160E070E080E10E9436
:100C800049011092AA01C330D10509F4C8C03CF44F
:100C9000C130D10571F0229709F453C0B5C2C530F7
:100CA000D10509F488C10CF456C1269709F417C27E
:100CB000ABC20E94930260E080E00E943C038EE29F
:100CC00091E00E946A0360E084E00E943C0360912E
:100CD00008017091090180910A0190910B0142E095
:100CE0000E94C90360E088E00E943C0385E291E035
:100CF0000E946A0361E080E00E943C038BE191E086
:100D00000E946A0361E084E00E943C036091AB01B1
:100D10007091AC018091AD019091AE0142E00E94D2
:100D2000C90361E08DE00E943C038091AA01882301
:100D300019F08CE791E002C08FE791E00E946A030E
:100D400063C20E94930260E080E00E943C0382E361
:100D500091E00E946A0361E080E00E943C038EE221
:100D600091E00E946A0361E084E00E943C0360918C
:100D7000A6017091A7018091A8019091A90142E07C
:100D80000E94C90387E00E94B500892BB1F020E0E2
:100D900030E040E85FE36091A6017091A701809187
:100DA000A8019091A9010E948E096093A6017093F9
:100DB000A7018093A8019093A90188E00E94B50043
:100DC000892BB1F020E030E040E85FE36091A601BC
:100DD0007091A7018091A8019091A9010E948D09AD
:100DE0006093A6017093A7018093A8019093A90135
:100DF00089E00E94B500892B09F406C28091A60102
:100E00009091A701A091A801B091A9018093080138
:100E100090930901A0930A01B0930B01F5C10E94C0
:100E2000930260E080E00E943C0384E491E00E9431
:100E30006A0361E080E00E943C0380E491E00E944C
:100E40006A0361E084E00E943C036091A20170911A
:100E5000A3018091A4019091A50142E00E94C903E1
:100E600087E00E94B500892B69F120E030E040E87E
:100E70005FE36091A2017091A3018091A401909120
:100E8000A5010E948E094B015C0120E030E040E8A2
:100E900050E40E94590B18164CF08092A2019092D7
:100EA000A301A092A401B092A5010CC080E090E043
:100EB000A0E8B0E48093A2019093A301A093A401C1
:100EC000B093A50188E00E94B500892B69F120E06C
:100ED00030E040E85FE36091A2017091A30180914E
:100EE000A4019091A5010E948D094B015C0120E0B5
:100EF00030E040E85FE30E94FA0987FD09C0809274
:100F0000A2019092A301A092A401B092A5010CC0ED
:100F100080E090E0A0E8BFE38093A2019093A3015A
:100F2000A093A401B093A50189E00E94B500892B8C
:100F300009F46AC18091A2019091A301A091A4013A
:100F4000B091A5018093040190930501A09306013F
:100F5000B093070159C10E94930260E080E00E94B3
:100F60003C0384E691E00E946A0361E084E00E9411
:100F70003C0380910E01882319F083E591E002C0C3
:100F80008BE591E00E946A0387E00E94B500892BFF
:100F900009F07DC188E00E94B500892B09F077C176
:100FA00080910E01882311F061E001C060E086E0CD
:100FB0000E94DE0029C10E94930260E080E00E944E
:100FC0003C0388E891E00E946A0361E080E00E94AF
:100FD0003C0384E791E00E946A0361E086E00E949E
:100FE0003C03809102019091030118161906FCF44C
:100FF0008CE791E00E946A0361E08AE00E943C0372
:101000006091020170910301072E000C880B990B6F
:1010100097FF03C00E94AD0303C04AE00E946C0327
:1010200061E08DE00E943C038AE791E002C08FE717
:1010300091E00E946A0387E00E94B500892B89F045
:1010400080910201909103010196853691052CF45F
:10105000909303018093020104C010930301009355
:10106000020188E00E94B500892B89F0809102017D
:10107000909103010197181619062CF4909303011F
:101080008093020104C0F0920301E092020189E022
:101090000E94B500892B79F08091020190910301A3
:1010A000892B29F4109303010093020104C01092CC
:1010B0000301109202016091020170910301072E59
:1010C000000C880B990B0E94A90A2AE037ED43EC2B
:1010D0005FE30E945E0B0E94710A80E193C00E9450
:1010E000930260E080E00E943C0388E891E00E9467
:1010F0006A0361E080E00E943C0383E891E00E9483
:101100006A0361E085E00E943C03809100019091B8
:10111000010118161906FCF48CE791E00E946A039D
:1011200061E08AE00E943C0360910001709101013E
:10113000072E000C880B990B97FF03C00E94AD038C
:1011400003C04AE00E946C0361E08DE00E943C0312
:101150008AE791E002C08FE791E00E946A0387E08E
:101160000E94B500892B89F08091000190910101C6
:101170000196853691052CF490930101809300012E
:1011800004C0109301010093000188E00E94B500A3
:10119000892B89F080910001909101010197181627
:1011A00019062CF4909301018093000104C0F09281
:1011B0000101E092000189E00E94B500892B79F0DD
:1011C0008091000190910101892B29F41093010174
:1011D0000093000104C0109201011092000160917F
:1011E000000170910101072E000C880B990B0E94E1
:1011F000A90A23E333E343E250E40E945E0B0E941A
:10120000710A8FE00E9449010E94A8014B015C0114
:1012100088EC482E512C612C712C0E94A801DC0115
:10122000CB0188199909AA09BB09883E9340A105F9
:10123000B10598F321E0421A51086108710888EE5F
:10124000880E83E0981EA11CB11C41145104610456
:10125000710419F78AE00E94B500892B89F080910A
:101260000C0190910D0101968730910529F0909322
:101270000D0180930C0104C0F0920D01E0920C016D
:10128000C114D10409F416CC0E94000013CC909133
:101290000E0181E0892780930E0182CEEDEBF1E013
:1012A0001382128283E191E0918380838CE08483B6
:1012B0008FEF85838BE0868385E0878384E080875A
:1012C00083E0818782E082871386148615861686DE
:1012D000178681E00E949B0280910801909109018C
:1012E000A0910A01B0910B018093A6019093A701F0
:1012F000A093A801B093A9018091040190910501E8
:10130000A0910601B09107018093A2019093A301DF
:10131000A093A401B093A50108955058BB27AA2714
:101320000E94A5090C941F0B0E94110B38F00E941B
:10133000180B20F039F49F3F19F426F40C940E0B8F
:101340000EF4E095E7FB0C94080BE92F0E94300B9C
:1013500058F3BA17620773078407950720F079F4EA
:10136000A6F50C94520B0EF4E0950B2EBA2FA02D7F
:101370000B01B90190010C01CA01A0011124FF2742
:10138000591B99F0593F50F4503E68F11A16F0403D
:10139000A22F232F342F4427585FF3CF469537953C
:1013A0002795A795F0405395C9F77EF41F16BA0B01
:1013B000620B730B840BBAF09150A1F0FF0FBB1FAF
:1013C000661F771F881FC2F70EC0BA0F621F731FF8
:1013D000841F48F4879577956795B795F7959E3F55
:1013E00008F0B0CF9395880F08F09927EE0F9795E6
:1013F000879508950E94E40A08F481E008950E9408
:10140000130A0C941F0B0E94180B58F00E94110B2A
:1014100040F029F45F3F29F00C94080B51110C9413
:10142000530B0C940E0B0E94300B68F39923B1F30D
:10143000552391F3951B550BBB27AA2762177307FA
:10144000840738F09F5F5F4F220F331F441FAA1F8E
:10145000A9F335D00E2E3AF0E0E832D0915050404A
:10146000E695001CCAF72BD0FE2F29D0660F771FF8
:10147000881FBB1F261737074807AB07B0E809F0DE
:10148000BB0B802DBF01FF2793585F4F3AF09E3F63
:10149000510578F00C94080B0C94530B5F3FE4F368
:1014A000983ED4F3869577956795B795F7959F5FA6
:1014B000C9F7880F911D9695879597F90895E1E0F2
:1014C000660F771F881FBB1F621773078407BA0751
:1014D00020F0621B730B840BBA0BEE1F88F7E095AC
:1014E00008950E94780A6894B1110C94530B0895E2
:1014F0000E94380B88F09F5798F0B92F9927B75161
:10150000B0F0E1F0660F771F881F991F1AF0BA95A7
:10151000C9F714C0B13091F00E94520BB1E00895A8
:101520000C94520B672F782F8827B85F39F0B93F9A
:10153000CCF3869577956795B395D9F73EF490955A
:101540008095709561957F4F8F4F9F4F0895E894D8
:1015500009C097FB3EF490958095709561957F4FFB
:101560008F4F9F4F9923A9F0F92F96E9BB279395A9
:10157000F695879577956795B795F111F8CFFAF4B9
:10158000BB0F11F460FF1BC06F5F7F4F8F4F9F4FEA
:1015900016C0882311F096E911C0772321F09EE848
:1015A000872F762F05C0662371F096E8862F70E0AE
:1015B00060E02AF09A95660F771F881FDAF7880F88
:1015C0009695879597F90895990F0008550FAA0BDE
:1015D000E0E8FEEF16161706E807F907C0F0121646
:1015E0001306E407F50798F0621B730B840B950B49
:1015F00039F40A2661F0232B242B252B21F408959E
:101600000A2609F4A140A6958FEF811D811D08953A
:1016100097F99F6780E870E060E008959FEF80ECA5
:10162000089500240A941616170618060906089548
:1016300000240A9412161306140605060895092EAE
:101640000394000C11F4882352F0BB0F40F4BF2B1D
:1016500011F460FF04C06F5F7F4F8F4F9F4F08955D
:1016600057FD9058440F551F59F05F3F71F0479553
:10167000880F97FB991F61F09F3F79F08795089538
:10168000121613061406551FF2CF4695F1DF08C057
:10169000161617061806991FF1CF86957105610574
:1016A00008940895E894BB2766277727CB0197F91C
:1016B00008950E94E40A08F48FEF08950E94710BC8
:1016C0000C941F0B0E94110B38F00E94180B20F095
:1016D000952311F00C94080B0C940E0B11240C9410
:1016E000530B0E94300B70F3959FC1F3950F50E0A0
:1016F000551F629FF001729FBB27F00DB11D639FC4
:10170000AA27F00DB11DAA1F649F6627B00DA11D69
:10171000661F829F2227B00DA11D621F739FB00D0F
:10172000A11D621F839FA00D611D221F749F33277F
:10173000A00D611D231F849F600D211D822F762F18
:101740006A2F11249F5750409AF0F1F088234AF0F5
:10175000EE0FFF1FBB1F661F771F881F9150504061
:10176000A9F79E3F510580F00C94080B0C94530B85
:101770005F3FE4F3983ED4F3869577956795B795E8
:10178000F795E7959F5FC1F7FE2B880F911D969502
:10179000879597F908950E94E40A880B990B08959C
:1017A000A1E21A2EAA1BBB1BFD010DC0AA1FBB1F65
:1017B000EE1FFF1FA217B307E407F50720F0A21BD7
:1017C000B30BE40BF50B661F771F881F991F1A9444
:1017D00069F760957095809590959B01AC01BD016E
:1017E000CF010895EE0FFF1F0590F491E02D0994AD
:0E17F00081E090E0F8940C94FD0BF894FFCF8C
:1017FE00640064000000803F0000F0410100010021
:10180E000000004E03CD015503540350563A2020DC
:10181E00202020430043202020486561740053504F
:10182E003A004E65772053657420506F696E7400D0
:10183E004B503A004E65772050726F702E204761E4
:10184E00696E00456E61626C656400446973616225
:10185E006C65640020204472697665722053746151
:10186E0074757300486561743A0025004F4E004F41
:10187E0046460046616E3A0020204D616E75616CE1
:10188E00204D6F6465006E616E00696E66006F7646
:02189E006600E2
:00000001FF
